{
  "contractName": "MedicalChain",
  "abi": [
    {
      "inputs": [],
      "payable": false,
      "stateMutability": "nonpayable",
      "type": "constructor"
    },
    {
      "anonymous": false,
      "inputs": [
        {
          "indexed": false,
          "internalType": "address",
          "name": "admin",
          "type": "address"
        },
        {
          "indexed": false,
          "internalType": "address",
          "name": "doctor",
          "type": "address"
        }
      ],
      "name": "DrDetailsAdded",
      "type": "event"
    },
    {
      "anonymous": false,
      "inputs": [
        {
          "indexed": false,
          "internalType": "address",
          "name": "dr",
          "type": "address"
        },
        {
          "indexed": false,
          "internalType": "address",
          "name": "patient",
          "type": "address"
        }
      ],
      "name": "GrantAccessToDr",
      "type": "event"
    },
    {
      "anonymous": false,
      "inputs": [
        {
          "indexed": false,
          "internalType": "address",
          "name": "dr",
          "type": "address"
        },
        {
          "indexed": false,
          "internalType": "address",
          "name": "patient",
          "type": "address"
        }
      ],
      "name": "HealthRecordsAdded",
      "type": "event"
    },
    {
      "constant": false,
      "inputs": [
        {
          "internalType": "bool",
          "name": "_state",
          "type": "bool"
        },
        {
          "internalType": "address",
          "name": "_drId",
          "type": "address"
        },
        {
          "internalType": "string",
          "name": "_name",
          "type": "string"
        }
      ],
      "name": "setDoctorDetails",
      "outputs": [],
      "payable": false,
      "stateMutability": "nonpayable",
      "type": "function"
    },
    {
      "constant": true,
      "inputs": [
        {
          "internalType": "address",
          "name": "_Id",
          "type": "address"
        }
      ],
      "name": "getDoctorDetails",
      "outputs": [
        {
          "internalType": "bool",
          "name": "_state",
          "type": "bool"
        },
        {
          "internalType": "address",
          "name": "_drId",
          "type": "address"
        },
        {
          "internalType": "string",
          "name": "_name",
          "type": "string"
        }
      ],
      "payable": false,
      "stateMutability": "view",
      "type": "function"
    },
    {
      "constant": false,
      "inputs": [
        {
          "internalType": "string",
          "name": "_paName",
          "type": "string"
        },
        {
          "internalType": "address",
          "name": "_paId",
          "type": "address"
        },
        {
          "internalType": "string",
          "name": "_prescription",
          "type": "string"
        }
      ],
      "name": "setHealthRecordsDetails",
      "outputs": [],
      "payable": false,
      "stateMutability": "nonpayable",
      "type": "function"
    },
    {
      "constant": false,
      "inputs": [
        {
          "internalType": "bool",
          "name": "_state",
          "type": "bool"
        },
        {
          "internalType": "address",
          "name": "_paId",
          "type": "address"
        },
        {
          "internalType": "string",
          "name": "_paName",
          "type": "string"
        },
        {
          "internalType": "string[]",
          "name": "_paRecords",
          "type": "string[]"
        }
      ],
      "name": "setPatientDetails",
      "outputs": [],
      "payable": false,
      "stateMutability": "nonpayable",
      "type": "function"
    },
    {
      "constant": true,
      "inputs": [
        {
          "internalType": "address",
          "name": "_Id",
          "type": "address"
        }
      ],
      "name": "getPatientDetails",
      "outputs": [
        {
          "internalType": "bool",
          "name": "_state",
          "type": "bool"
        },
        {
          "internalType": "address",
          "name": "_paId",
          "type": "address"
        },
        {
          "internalType": "string",
          "name": "_paName",
          "type": "string"
        },
        {
          "internalType": "string[]",
          "name": "_paRecords",
          "type": "string[]"
        }
      ],
      "payable": false,
      "stateMutability": "view",
      "type": "function"
    },
    {
      "constant": true,
      "inputs": [
        {
          "internalType": "address",
          "name": "_dr",
          "type": "address"
        }
      ],
      "name": "getHealthRecords",
      "outputs": [
        {
          "internalType": "string",
          "name": "_drName",
          "type": "string"
        },
        {
          "internalType": "address",
          "name": "_drId",
          "type": "address"
        },
        {
          "internalType": "string",
          "name": "_paName",
          "type": "string"
        },
        {
          "internalType": "address",
          "name": "_paId",
          "type": "address"
        },
        {
          "internalType": "string",
          "name": "_prescription",
          "type": "string"
        },
        {
          "internalType": "string[]",
          "name": "_rec",
          "type": "string[]"
        }
      ],
      "payable": false,
      "stateMutability": "view",
      "type": "function"
    },
    {
      "constant": false,
      "inputs": [
        {
          "internalType": "address",
          "name": "doctor_id",
          "type": "address"
        },
        {
          "internalType": "uint256",
          "name": "access",
          "type": "uint256"
        }
      ],
      "name": "grantAccessToDoctor",
      "outputs": [],
      "payable": false,
      "stateMutability": "nonpayable",
      "type": "function"
    },
    {
      "constant": true,
      "inputs": [
        {
          "internalType": "address",
          "name": "_paId",
          "type": "address"
        }
      ],
      "name": "getHealthRecordsForDoctor",
      "outputs": [
        {
          "internalType": "string",
          "name": "_drName",
          "type": "string"
        },
        {
          "internalType": "address",
          "name": "_drId",
          "type": "address"
        },
        {
          "internalType": "string",
          "name": "_paName",
          "type": "string"
        },
        {
          "internalType": "address",
          "name": "_pId",
          "type": "address"
        },
        {
          "internalType": "string",
          "name": "_prescription",
          "type": "string"
        },
        {
          "internalType": "string[]",
          "name": "_rec",
          "type": "string[]"
        }
      ],
      "payable": false,
      "stateMutability": "view",
      "type": "function"
    }
  ],
  "bytecode": "0x608060405234801561001057600080fd5b5033600460006101000a81548173ffffffffffffffffffffffffffffffffffffffff021916908373ffffffffffffffffffffffffffffffffffffffff160217905550613195806100616000396000f3fe608060405234801561001057600080fd5b50600436106100885760003560e01c8063bab90dbd1161005b578063bab90dbd14610116578063c88f22a914610148578063efe2ccc114610164578063f83009ba1461019757610088565b8063506f17731461008d57806371f61bfa146100a95780637827c01a146100c557806380cfed0e146100fa575b600080fd5b6100a760048036036100a291908101906128db565b6101cc565b005b6100c360048036036100be919081019061297e565b610320565b005b6100df60048036036100da91908101906128b2565b6104d7565b6040516100f196959493929190612e01565b60405180910390f35b610114600480360361010f9190810190612917565b610b83565b005b610130600480360361012b91908101906128b2565b610d49565b60405161013f93929190612d70565b60405180910390f35b610162600480360361015d9190810190612a11565b610f76565b005b61017e600480360361017991908101906128b2565b61198b565b60405161018e9493929190612dae565b60405180910390f35b6101b160048036036101ac91908101906128b2565b611d6d565b6040516101c396959493929190612e01565b60405180910390f35b60011515600160003373ffffffffffffffffffffffffffffffffffffffff1673ffffffffffffffffffffffffffffffffffffffff16815260200190815260200160002060000160009054906101000a900460ff16151514610262576040517f08c379a000000000000000000000000000000000000000000000000000000000815260040161025990612e7e565b60405180910390fd5b80600360003373ffffffffffffffffffffffffffffffffffffffff1673ffffffffffffffffffffffffffffffffffffffff16815260200190815260200160002060008473ffffffffffffffffffffffffffffffffffffffff1673ffffffffffffffffffffffffffffffffffffffff168152602001908152602001600020819055507f19dd02d0615ff9058c55159271b51d3d8ead87b40cc392e6dbeca6483cff33338233604051610314929190612d47565b60405180910390a15050565b600115156000803373ffffffffffffffffffffffffffffffffffffffff1673ffffffffffffffffffffffffffffffffffffffff16815260200190815260200160002060000160009054906101000a900460ff161515146103b5576040517f08c379a00000000000000000000000000000000000000000000000000000000081526004016103ac90612ede565b60405180910390fd5b604051806080016040528085151581526020018473ffffffffffffffffffffffffffffffffffffffff16815260200183815260200182815250600160008573ffffffffffffffffffffffffffffffffffffffff1673ffffffffffffffffffffffffffffffffffffffff16815260200190815260200160002060008201518160000160006101000a81548160ff02191690831515021790555060208201518160000160016101000a81548173ffffffffffffffffffffffffffffffffffffffff021916908373ffffffffffffffffffffffffffffffffffffffff16021790555060408201518160010190805190602001906104b09291906124d7565b5060608201518160020190805190602001906104cd929190612557565b5090505050505050565b606060006060600060608060011515600160003373ffffffffffffffffffffffffffffffffffffffff1673ffffffffffffffffffffffffffffffffffffffff16815260200190815260200160002060000160009054906101000a900460ff16151514610578576040517f08c379a000000000000000000000000000000000000000000000000000000000815260040161056f90612e7e565b60405180910390fd5b600260008873ffffffffffffffffffffffffffffffffffffffff1673ffffffffffffffffffffffffffffffffffffffff16815260200190815260200160002060003373ffffffffffffffffffffffffffffffffffffffff1673ffffffffffffffffffffffffffffffffffffffff1681526020019081526020016000206000016001018054600181600116156101000203166002900480601f01602080910402602001604051908101604052809291908181526020018280546001816001161561010002031660029004801561068e5780601f106106635761010080835404028352916020019161068e565b820191906000526020600020905b81548152906001019060200180831161067157829003601f168201915b50505050509550600260008873ffffffffffffffffffffffffffffffffffffffff1673ffffffffffffffffffffffffffffffffffffffff16815260200190815260200160002060003373ffffffffffffffffffffffffffffffffffffffff1673ffffffffffffffffffffffffffffffffffffffff16815260200190815260200160002060000160000160019054906101000a900473ffffffffffffffffffffffffffffffffffffffff169450600260008873ffffffffffffffffffffffffffffffffffffffff1673ffffffffffffffffffffffffffffffffffffffff16815260200190815260200160002060003373ffffffffffffffffffffffffffffffffffffffff1673ffffffffffffffffffffffffffffffffffffffff1681526020019081526020016000206002016001018054600181600116156101000203166002900480601f0160208091040260200160405190810160405280929190818152602001828054600181600116156101000203166002900480156108505780601f1061082557610100808354040283529160200191610850565b820191906000526020600020905b81548152906001019060200180831161083357829003601f168201915b50505050509350600260008873ffffffffffffffffffffffffffffffffffffffff1673ffffffffffffffffffffffffffffffffffffffff16815260200190815260200160002060003373ffffffffffffffffffffffffffffffffffffffff1673ffffffffffffffffffffffffffffffffffffffff16815260200190815260200160002060020160000160019054906101000a900473ffffffffffffffffffffffffffffffffffffffff169250600260008873ffffffffffffffffffffffffffffffffffffffff1673ffffffffffffffffffffffffffffffffffffffff16815260200190815260200160002060003373ffffffffffffffffffffffffffffffffffffffff1673ffffffffffffffffffffffffffffffffffffffff1681526020019081526020016000206005016000018054600181600116156101000203166002900480601f016020809104026020016040519081016040528092919081815260200182805460018160011615610100020316600290048015610a125780601f106109e757610100808354040283529160200191610a12565b820191906000526020600020905b8154815290600101906020018083116109f557829003601f168201915b50505050509150600260008873ffffffffffffffffffffffffffffffffffffffff1673ffffffffffffffffffffffffffffffffffffffff16815260200190815260200160002060003373ffffffffffffffffffffffffffffffffffffffff1673ffffffffffffffffffffffffffffffffffffffff168152602001908152602001600020600601805480602002602001604051908101604052809291908181526020016000905b82821015610b74578382906000526020600020018054600181600116156101000203166002900480601f016020809104026020016040519081016040528092919081815260200182805460018160011615610100020316600290048015610b605780601f10610b3557610100808354040283529160200191610b60565b820191906000526020600020905b815481529060010190602001808311610b4357829003601f168201915b505050505081526020019060010190610ab8565b50505050905091939550919395565b600460009054906101000a900473ffffffffffffffffffffffffffffffffffffffff1673ffffffffffffffffffffffffffffffffffffffff163373ffffffffffffffffffffffffffffffffffffffff1614610c13576040517f08c379a0000000000000000000000000000000000000000000000000000000008152600401610c0a90612ebe565b60405180910390fd5b604051806060016040528084151581526020018373ffffffffffffffffffffffffffffffffffffffff168152602001828152506000808473ffffffffffffffffffffffffffffffffffffffff1673ffffffffffffffffffffffffffffffffffffffff16815260200190815260200160002060008201518160000160006101000a81548160ff02191690831515021790555060208201518160000160016101000a81548173ffffffffffffffffffffffffffffffffffffffff021916908373ffffffffffffffffffffffffffffffffffffffff1602179055506040820151816001019080519060200190610d079291906124d7565b509050507f83c041d3aeb1dcb1f28cb15e20bdfee5ed1ca3740e487f9cab72e13eeb8595053383604051610d3c929190612d1e565b60405180910390a1505050565b6000806060600460009054906101000a900473ffffffffffffffffffffffffffffffffffffffff1673ffffffffffffffffffffffffffffffffffffffff163373ffffffffffffffffffffffffffffffffffffffff1614610dde576040517f08c379a0000000000000000000000000000000000000000000000000000000008152600401610dd590612ebe565b60405180910390fd5b6000808573ffffffffffffffffffffffffffffffffffffffff1673ffffffffffffffffffffffffffffffffffffffff16815260200190815260200160002060000160009054906101000a900460ff1692506000808573ffffffffffffffffffffffffffffffffffffffff1673ffffffffffffffffffffffffffffffffffffffff16815260200190815260200160002060000160019054906101000a900473ffffffffffffffffffffffffffffffffffffffff1691506000808573ffffffffffffffffffffffffffffffffffffffff1673ffffffffffffffffffffffffffffffffffffffff1681526020019081526020016000206001018054600181600116156101000203166002900480601f016020809104026020016040519081016040528092919081815260200182805460018160011615610100020316600290048015610f685780601f10610f3d57610100808354040283529160200191610f68565b820191906000526020600020905b815481529060010190602001808311610f4b57829003601f168201915b505050505090509193909250565b600115156000803373ffffffffffffffffffffffffffffffffffffffff1673ffffffffffffffffffffffffffffffffffffffff16815260200190815260200160002060000160009054906101000a900460ff1615151461100b576040517f08c379a000000000000000000000000000000000000000000000000000000000815260040161100290612ede565b60405180910390fd5b6000803373ffffffffffffffffffffffffffffffffffffffff1673ffffffffffffffffffffffffffffffffffffffff168152602001908152602001600020600101600260003373ffffffffffffffffffffffffffffffffffffffff1673ffffffffffffffffffffffffffffffffffffffff16815260200190815260200160002060008473ffffffffffffffffffffffffffffffffffffffff1673ffffffffffffffffffffffffffffffffffffffff16815260200190815260200160002060000160010190805460018160011615610100020316600290046110ed9291906125b7565b506000803373ffffffffffffffffffffffffffffffffffffffff1673ffffffffffffffffffffffffffffffffffffffff16815260200190815260200160002060000160019054906101000a900473ffffffffffffffffffffffffffffffffffffffff16600260003373ffffffffffffffffffffffffffffffffffffffff1673ffffffffffffffffffffffffffffffffffffffff16815260200190815260200160002060008473ffffffffffffffffffffffffffffffffffffffff1673ffffffffffffffffffffffffffffffffffffffff16815260200190815260200160002060000160000160016101000a81548173ffffffffffffffffffffffffffffffffffffffff021916908373ffffffffffffffffffffffffffffffffffffffff1602179055506001600260003373ffffffffffffffffffffffffffffffffffffffff1673ffffffffffffffffffffffffffffffffffffffff16815260200190815260200160002060008473ffffffffffffffffffffffffffffffffffffffff1673ffffffffffffffffffffffffffffffffffffffff16815260200190815260200160002060020160000160006101000a81548160ff02191690831515021790555081600260003373ffffffffffffffffffffffffffffffffffffffff1673ffffffffffffffffffffffffffffffffffffffff16815260200190815260200160002060008473ffffffffffffffffffffffffffffffffffffffff1673ffffffffffffffffffffffffffffffffffffffff16815260200190815260200160002060020160000160016101000a81548173ffffffffffffffffffffffffffffffffffffffff021916908373ffffffffffffffffffffffffffffffffffffffff16021790555082600260003373ffffffffffffffffffffffffffffffffffffffff1673ffffffffffffffffffffffffffffffffffffffff16815260200190815260200160002060008473ffffffffffffffffffffffffffffffffffffffff1673ffffffffffffffffffffffffffffffffffffffff168152602001908152602001600020600201600101908051906020019061140292919061263e565b5080600260003373ffffffffffffffffffffffffffffffffffffffff1673ffffffffffffffffffffffffffffffffffffffff16815260200190815260200160002060008473ffffffffffffffffffffffffffffffffffffffff1673ffffffffffffffffffffffffffffffffffffffff168152602001908152602001600020600501600001908051906020019061149992919061263e565b50600260003373ffffffffffffffffffffffffffffffffffffffff1673ffffffffffffffffffffffffffffffffffffffff16815260200190815260200160002060008373ffffffffffffffffffffffffffffffffffffffff1673ffffffffffffffffffffffffffffffffffffffff16815260200190815260200160002060060181908060018154018082558091505090600182039060005260206000200160009091929091909150908051906020019061155492919061263e565b5050600160008373ffffffffffffffffffffffffffffffffffffffff1673ffffffffffffffffffffffffffffffffffffffff1681526020019081526020016000206002018190806001815401808255809150509060018203906000526020600020016000909192909190915090805190602001906115d392919061263e565b505061194d600260003373ffffffffffffffffffffffffffffffffffffffff1673ffffffffffffffffffffffffffffffffffffffff16815260200190815260200160002060008473ffffffffffffffffffffffffffffffffffffffff1673ffffffffffffffffffffffffffffffffffffffff16815260200190815260200160002060020160000160009054906101000a900460ff16600260003373ffffffffffffffffffffffffffffffffffffffff1673ffffffffffffffffffffffffffffffffffffffff16815260200190815260200160002060008573ffffffffffffffffffffffffffffffffffffffff1673ffffffffffffffffffffffffffffffffffffffff16815260200190815260200160002060020160000160019054906101000a900473ffffffffffffffffffffffffffffffffffffffff16600260003373ffffffffffffffffffffffffffffffffffffffff1673ffffffffffffffffffffffffffffffffffffffff16815260200190815260200160002060008673ffffffffffffffffffffffffffffffffffffffff1673ffffffffffffffffffffffffffffffffffffffff1681526020019081526020016000206002016001018054600181600116156101000203166002900480601f0160208091040260200160405190810160405280929190818152602001828054600181600116156101000203166002900480156118215780601f106117f657610100808354040283529160200191611821565b820191906000526020600020905b81548152906001019060200180831161180457829003601f168201915b5050505050600160008773ffffffffffffffffffffffffffffffffffffffff1673ffffffffffffffffffffffffffffffffffffffff168152602001908152602001600020600201805480602002602001604051908101604052809291908181526020016000905b82821015611944578382906000526020600020018054600181600116156101000203166002900480601f0160208091040260200160405190810160405280929190818152602001828054600181600116156101000203166002900480156119305780601f1061190557610100808354040283529160200191611930565b820191906000526020600020905b81548152906001019060200180831161191357829003601f168201915b505050505081526020019060010190611888565b50505050610320565b7ffd09d3da0077a9ed9d4af05531b2f844c840c94c1e6535e3d2a09a6ae1aa9a52338360405161197e929190612d1e565b60405180910390a1505050565b60008060608060011515600160003373ffffffffffffffffffffffffffffffffffffffff1673ffffffffffffffffffffffffffffffffffffffff16815260200190815260200160002060000160009054906101000a900460ff1615151480611a6f57506001600360008773ffffffffffffffffffffffffffffffffffffffff1673ffffffffffffffffffffffffffffffffffffffff16815260200190815260200160002060003373ffffffffffffffffffffffffffffffffffffffff1673ffffffffffffffffffffffffffffffffffffffff16815260200190815260200160002054145b611aae576040517f08c379a0000000000000000000000000000000000000000000000000000000008152600401611aa590612e9e565b60405180910390fd5b600160008673ffffffffffffffffffffffffffffffffffffffff1673ffffffffffffffffffffffffffffffffffffffff16815260200190815260200160002060000160009054906101000a900460ff169350600160008673ffffffffffffffffffffffffffffffffffffffff1673ffffffffffffffffffffffffffffffffffffffff16815260200190815260200160002060000160019054906101000a900473ffffffffffffffffffffffffffffffffffffffff169250600160008673ffffffffffffffffffffffffffffffffffffffff1673ffffffffffffffffffffffffffffffffffffffff1681526020019081526020016000206001018054600181600116156101000203166002900480601f016020809104026020016040519081016040528092919081815260200182805460018160011615610100020316600290048015611c3b5780601f10611c1057610100808354040283529160200191611c3b565b820191906000526020600020905b815481529060010190602001808311611c1e57829003601f168201915b50505050509150600160008673ffffffffffffffffffffffffffffffffffffffff1673ffffffffffffffffffffffffffffffffffffffff168152602001908152602001600020600201805480602002602001604051908101604052809291908181526020016000905b82821015611d60578382906000526020600020018054600181600116156101000203166002900480601f016020809104026020016040519081016040528092919081815260200182805460018160011615610100020316600290048015611d4c5780601f10611d2157610100808354040283529160200191611d4c565b820191906000526020600020905b815481529060010190602001808311611d2f57829003601f168201915b505050505081526020019060010190611ca4565b5050505090509193509193565b6060600060606000606080600115156000803373ffffffffffffffffffffffffffffffffffffffff1673ffffffffffffffffffffffffffffffffffffffff16815260200190815260200160002060000160009054906101000a900460ff16151514611e0d576040517f08c379a0000000000000000000000000000000000000000000000000000000008152600401611e0490612ede565b60405180910390fd5b6001600360008973ffffffffffffffffffffffffffffffffffffffff1673ffffffffffffffffffffffffffffffffffffffff16815260200190815260200160002060003373ffffffffffffffffffffffffffffffffffffffff1673ffffffffffffffffffffffffffffffffffffffff1681526020019081526020016000205414611ecc576040517f08c379a0000000000000000000000000000000000000000000000000000000008152600401611ec390612efe565b60405180910390fd5b600260003373ffffffffffffffffffffffffffffffffffffffff1673ffffffffffffffffffffffffffffffffffffffff16815260200190815260200160002060008873ffffffffffffffffffffffffffffffffffffffff1673ffffffffffffffffffffffffffffffffffffffff1681526020019081526020016000206000016001018054600181600116156101000203166002900480601f016020809104026020016040519081016040528092919081815260200182805460018160011615610100020316600290048015611fe25780601f10611fb757610100808354040283529160200191611fe2565b820191906000526020600020905b815481529060010190602001808311611fc557829003601f168201915b50505050509550600260003373ffffffffffffffffffffffffffffffffffffffff1673ffffffffffffffffffffffffffffffffffffffff16815260200190815260200160002060008873ffffffffffffffffffffffffffffffffffffffff1673ffffffffffffffffffffffffffffffffffffffff16815260200190815260200160002060000160000160019054906101000a900473ffffffffffffffffffffffffffffffffffffffff169450600260003373ffffffffffffffffffffffffffffffffffffffff1673ffffffffffffffffffffffffffffffffffffffff16815260200190815260200160002060008873ffffffffffffffffffffffffffffffffffffffff1673ffffffffffffffffffffffffffffffffffffffff1681526020019081526020016000206002016001018054600181600116156101000203166002900480601f0160208091040260200160405190810160405280929190818152602001828054600181600116156101000203166002900480156121a45780601f10612179576101008083540402835291602001916121a4565b820191906000526020600020905b81548152906001019060200180831161218757829003601f168201915b50505050509350600260003373ffffffffffffffffffffffffffffffffffffffff1673ffffffffffffffffffffffffffffffffffffffff16815260200190815260200160002060008873ffffffffffffffffffffffffffffffffffffffff1673ffffffffffffffffffffffffffffffffffffffff16815260200190815260200160002060020160000160019054906101000a900473ffffffffffffffffffffffffffffffffffffffff169250600260003373ffffffffffffffffffffffffffffffffffffffff1673ffffffffffffffffffffffffffffffffffffffff16815260200190815260200160002060008873ffffffffffffffffffffffffffffffffffffffff1673ffffffffffffffffffffffffffffffffffffffff1681526020019081526020016000206005016000018054600181600116156101000203166002900480601f0160208091040260200160405190810160405280929190818152602001828054600181600116156101000203166002900480156123665780601f1061233b57610100808354040283529160200191612366565b820191906000526020600020905b81548152906001019060200180831161234957829003601f168201915b50505050509150600260003373ffffffffffffffffffffffffffffffffffffffff1673ffffffffffffffffffffffffffffffffffffffff16815260200190815260200160002060008873ffffffffffffffffffffffffffffffffffffffff1673ffffffffffffffffffffffffffffffffffffffff168152602001908152602001600020600601805480602002602001604051908101604052809291908181526020016000905b828210156124c8578382906000526020600020018054600181600116156101000203166002900480601f0160208091040260200160405190810160405280929190818152602001828054600181600116156101000203166002900480156124b45780601f10612489576101008083540402835291602001916124b4565b820191906000526020600020905b81548152906001019060200180831161249757829003601f168201915b50505050508152602001906001019061240c565b50505050905091939550919395565b828054600181600116156101000203166002900490600052602060002090601f016020900481019282601f1061251857805160ff1916838001178555612546565b82800160010185558215612546579182015b8281111561254557825182559160200191906001019061252a565b5b50905061255391906126be565b5090565b8280548282559060005260206000209081019282156125a6579160200282015b828111156125a55782518290805190602001906125959291906124d7565b5091602001919060010190612577565b5b5090506125b391906126e3565b5090565b828054600181600116156101000203166002900490600052602060002090601f016020900481019282601f106125f0578054855561262d565b8280016001018555821561262d57600052602060002091601f016020900482015b8281111561262c578254825591600101919060010190612611565b5b50905061263a91906126be565b5090565b828054600181600116156101000203166002900490600052602060002090601f016020900481019282601f1061267f57805160ff19168380011785556126ad565b828001600101855582156126ad579182015b828111156126ac578251825591602001919060010190612691565b5b5090506126ba91906126be565b5090565b6126e091905b808211156126dc5760008160009055506001016126c4565b5090565b90565b61270c91905b8082111561270857600081816126ff919061270f565b506001016126e9565b5090565b90565b50805460018160011615610100020316600290046000825580601f106127355750612754565b601f01602090049060005260206000209081019061275391906126be565b5b50565b6000813590506127668161310d565b92915050565b600082601f83011261277d57600080fd5b813561279061278b82612f4b565b612f1e565b9150818183526020840193506020810190508360005b838110156127d657813586016127bc88826127f5565b8452602084019350602083019250506001810190506127a6565b5050505092915050565b6000813590506127ef81613124565b92915050565b600082601f83011261280657600080fd5b813561281961281482612f73565b612f1e565b9150808252602083016020830185838301111561283557600080fd5b6128408382846130ba565b50505092915050565b600082601f83011261285a57600080fd5b813561286d61286882612f9f565b612f1e565b9150808252602083016020830185838301111561288957600080fd5b6128948382846130ba565b50505092915050565b6000813590506128ac8161313b565b92915050565b6000602082840312156128c457600080fd5b60006128d284828501612757565b91505092915050565b600080604083850312156128ee57600080fd5b60006128fc85828601612757565b925050602061290d8582860161289d565b9150509250929050565b60008060006060848603121561292c57600080fd5b600061293a868287016127e0565b935050602061294b86828701612757565b925050604084013567ffffffffffffffff81111561296857600080fd5b61297486828701612849565b9150509250925092565b6000806000806080858703121561299457600080fd5b60006129a2878288016127e0565b94505060206129b387828801612757565b935050604085013567ffffffffffffffff8111156129d057600080fd5b6129dc87828801612849565b925050606085013567ffffffffffffffff8111156129f957600080fd5b612a058782880161276c565b91505092959194509250565b600080600060608486031215612a2657600080fd5b600084013567ffffffffffffffff811115612a4057600080fd5b612a4c86828701612849565b9350506020612a5d86828701612757565b925050604084013567ffffffffffffffff811115612a7a57600080fd5b612a8686828701612849565b9150509250925092565b6000612a9c8383612b7f565b905092915050565b612aad81613084565b82525050565b612abc8161303c565b82525050565b6000612acd82612fdb565b612ad78185613009565b935083602082028501612ae985612fcb565b8060005b85811015612b255784840389528151612b068582612a90565b9450612b1183612ffc565b925060208a01995050600181019050612aed565b50829750879550505050505092915050565b612b408161304e565b82525050565b6000612b5182612ff1565b612b5b818561302b565b9350612b6b8185602086016130c9565b612b74816130fc565b840191505092915050565b6000612b8a82612fe6565b612b94818561301a565b9350612ba48185602086016130c9565b612bad816130fc565b840191505092915050565b6000612bc560188361302b565b91507f524547495354455245442050415449454e5453204f4e4c5900000000000000006000830152602082019050919050565b6000612c0560278361302b565b91507f50415449454e5453204f52204143434553535f4752414e5445445f444f43544f60008301527f5253204f4e4c59000000000000000000000000000000000000000000000000006020830152604082019050919050565b6000612c6b60158361302b565b91507f4f4e4c592041444d494e20495320414c4c4f57454400000000000000000000006000830152602082019050919050565b6000612cab60178361302b565b91507f5245474953544552454420444f43544f5253204f4e4c590000000000000000006000830152602082019050919050565b6000612ceb60158361302b565b91507f445220414343455353204e4f54204752414e54454400000000000000000000006000830152602082019050919050565b6000604082019050612d336000830185612aa4565b612d406020830184612ab3565b9392505050565b6000604082019050612d5c6000830185612ab3565b612d696020830184612aa4565b9392505050565b6000606082019050612d856000830186612b37565b612d926020830185612ab3565b8181036040830152612da48184612b46565b9050949350505050565b6000608082019050612dc36000830187612b37565b612dd06020830186612ab3565b8181036040830152612de28185612b46565b90508181036060830152612df68184612ac2565b905095945050505050565b600060c0820190508181036000830152612e1b8189612b46565b9050612e2a6020830188612ab3565b8181036040830152612e3c8187612b46565b9050612e4b6060830186612ab3565b8181036080830152612e5d8185612b46565b905081810360a0830152612e718184612ac2565b9050979650505050505050565b60006020820190508181036000830152612e9781612bb8565b9050919050565b60006020820190508181036000830152612eb781612bf8565b9050919050565b60006020820190508181036000830152612ed781612c5e565b9050919050565b60006020820190508181036000830152612ef781612c9e565b9050919050565b60006020820190508181036000830152612f1781612cde565b9050919050565b6000604051905081810181811067ffffffffffffffff82111715612f4157600080fd5b8060405250919050565b600067ffffffffffffffff821115612f6257600080fd5b602082029050602081019050919050565b600067ffffffffffffffff821115612f8a57600080fd5b601f19601f8301169050602081019050919050565b600067ffffffffffffffff821115612fb657600080fd5b601f19601f8301169050602081019050919050565b6000819050602082019050919050565b600081519050919050565b600081519050919050565b600081519050919050565b6000602082019050919050565b600082825260208201905092915050565b600082825260208201905092915050565b600082825260208201905092915050565b60006130478261305a565b9050919050565b60008115159050919050565b600073ffffffffffffffffffffffffffffffffffffffff82169050919050565b6000819050919050565b600061308f82613096565b9050919050565b60006130a1826130a8565b9050919050565b60006130b38261305a565b9050919050565b82818337600083830152505050565b60005b838110156130e75780820151818401526020810190506130cc565b838111156130f6576000848401525b50505050565b6000601f19601f8301169050919050565b6131168161303c565b811461312157600080fd5b50565b61312d8161304e565b811461313857600080fd5b50565b6131448161307a565b811461314f57600080fd5b5056fea365627a7a723158205ee1dd748653d274d6bff7e287b3c70228387169477aa35109d4ca3e024bb6906c6578706572696d656e74616cf564736f6c63430005100040",
  "source": "pragma solidity ^0.5.0;\r\npragma experimental ABIEncoderV2;\r\n\r\ncontract MedicalChain{\r\n\r\n    mapping(address=>Doctor) DoctorInfo;\r\n    mapping(address=>Patient) PatientInfo;\r\n    mapping(address=> mapping(address => HealthRecords)) HealthInfo;\r\n    mapping (address => mapping (address => uint)) private patientToDoctor;\r\n\r\n\r\n\r\n    event DrDetailsAdded(address admin, address doctor);\r\n    event HealthRecordsAdded(address dr, address patient);\r\n    event GrantAccessToDr(address dr, address patient);\r\n\r\n    modifier OnlyOwner(){\r\n        require(msg.sender == owner,\"ONLY ADMIN IS ALLOWED\");\r\n        _;\r\n    }\r\n    \r\n    modifier Only_Doctors{\r\n        require(DoctorInfo[msg.sender].state == true,\"REGISTERED DOCTORS ONLY\");\r\n        _;\r\n    }\r\n    \r\n    modifier Only_Patients{\r\n        require(PatientInfo[msg.sender].state == true,\"REGISTERED PATIENTS ONLY\");\r\n        _;\r\n    }\r\n    \r\n    address owner;\r\n    \r\n    constructor() public{\r\n        owner = msg.sender;\r\n    }\r\n    \r\n    struct Doctor{\r\n        bool state; // To check whether the doctor is registered or not\r\n        address dr_Id; // Address of doctor\r\n        string d_Name; // Name of doctor\r\n    }\r\n    \r\n    struct Patient{\r\n        bool state; // To check whether patient is genuine\r\n        address pa_Id; // Address of registered patient\r\n        string pa_Name; // Name of Patient Name\r\n        string[] pa_Records; // Used to store the prescription records of corresponding patients\r\n    }\r\n    \r\n    struct PrescriptionDetails{\r\n        string prescription; // prescription details of patient given by doctor\r\n    }\r\n    \r\n    struct HealthRecords{\r\n        Doctor d;\r\n        Patient p;\r\n        PrescriptionDetails pre;\r\n        string[] records; // Used to store prescription records of patient w.r.t doctor\r\n    }\r\n    \r\n\r\n    \r\n    // Function to add Doctor details, done by admin only\r\n    function setDoctorDetails(bool _state,address _drId,string memory _name) public OnlyOwner {\r\n        DoctorInfo[_drId] = Doctor(_state,_drId,_name);\r\n        emit DrDetailsAdded(msg.sender, _drId);\r\n    }\r\n    \r\n    \r\n    \r\n    // Function to get Doctor details for admin\r\n    function getDoctorDetails(address _Id) public OnlyOwner view returns(bool _state,address _drId,string memory _name){\r\n        _state = DoctorInfo[_Id].state;\r\n        _drId = DoctorInfo[_Id].dr_Id;\r\n        _name = DoctorInfo[_Id].d_Name;\r\n    }\r\n    \r\n    \r\n    \r\n    // Function to add HealthRecords of patients, done by registered doctors only\r\n    function setHealthRecordsDetails(string memory _paName, address _paId, string memory _prescription) public Only_Doctors{\r\n        \r\n        HealthInfo[msg.sender][_paId].d.d_Name = DoctorInfo[msg.sender].d_Name; \r\n        HealthInfo[msg.sender][_paId].d.dr_Id = DoctorInfo[msg.sender].dr_Id;\r\n        HealthInfo[msg.sender][_paId].p.state = true;\r\n        HealthInfo[msg.sender][_paId].p.pa_Id = _paId;\r\n        HealthInfo[msg.sender][_paId].p.pa_Name = _paName;\r\n        HealthInfo[msg.sender][_paId].pre.prescription = _prescription;\r\n        HealthInfo[msg.sender][_paId].records.push(_prescription);\r\n        PatientInfo[_paId].pa_Records.push(_prescription);\r\n        setPatientDetails(HealthInfo[msg.sender][_paId].p.state,HealthInfo[msg.sender][_paId].p.pa_Id,HealthInfo[msg.sender][_paId].p.pa_Name,PatientInfo[_paId].pa_Records);\r\n        emit HealthRecordsAdded(msg.sender, _paId);\r\n    }\r\n    \r\n    \r\n    \r\n    // Function to add Patient details, done by registered doctors only\r\n    function setPatientDetails(bool _state,address _paId,string memory _paName,string[] memory _paRecords) public Only_Doctors{\r\n        PatientInfo[_paId] = Patient(_state,_paId,_paName,_paRecords);\r\n    }\r\n    \r\n    \r\n    \r\n    // Function to get Patient details\r\n    function getPatientDetails(address _Id) public view returns(bool _state,address _paId,string memory _paName,string[] memory _paRecords){\r\n       require(PatientInfo[msg.sender].state == true || patientToDoctor[_Id][msg.sender] == 1,\"PATIENTS OR ACCESS_GRANTED_DOCTORS ONLY\");\r\n        _state = PatientInfo[_Id].state;\r\n        _paId = PatientInfo[_Id].pa_Id;\r\n        _paName = PatientInfo[_Id].pa_Name;\r\n        _paRecords = PatientInfo[_Id].pa_Records;\r\n        \r\n    }\r\n    \r\n    \r\n    \r\n    // Function to get HealthRecords only for registered patients\r\n    function getHealthRecords(address _dr) Only_Patients public view returns(string memory _drName, address _drId, string memory _paName, address _paId,string memory _prescription,string[] memory _rec) {\r\n        _drName = HealthInfo[_dr][msg.sender].d.d_Name;\r\n        _drId = HealthInfo[_dr][msg.sender].d.dr_Id;\r\n        _paName = HealthInfo[_dr][msg.sender].p.pa_Name;\r\n        _paId = HealthInfo[_dr][msg.sender].p.pa_Id;\r\n        _prescription = HealthInfo[_dr][msg.sender].pre.prescription;\r\n        _rec = HealthInfo[_dr][msg.sender].records;\r\n    }\r\n\r\n\r\n\r\n    // Function to grant access to doctor ,so that the doctors with access can view the corresponding patients HealthRecords\r\n    function grantAccessToDoctor(address doctor_id,uint access) public Only_Patients{\r\n    \tpatientToDoctor[msg.sender][doctor_id] = access;\r\n        emit GrantAccessToDr(doctor_id,msg.sender);\r\n      }\r\n  \t\r\n  \t\r\n  \t\r\n  \t// Function to get HealthRecords only for registered Doctors\r\n  \tfunction getHealthRecordsForDoctor(address _paId) public Only_Doctors view returns(string memory _drName, address _drId, string memory _paName, address _pId,string memory _prescription,string[] memory _rec){\r\n\t\trequire(patientToDoctor[_paId][msg.sender] == 1,\"DR ACCESS NOT GRANTED\");\r\n\t\t_drName = HealthInfo[msg.sender][_paId].d.d_Name;\r\n        _drId = HealthInfo[msg.sender][_paId].d.dr_Id;\r\n        _paName = HealthInfo[msg.sender][_paId].p.pa_Name;\r\n        _pId = HealthInfo[msg.sender][_paId].p.pa_Id; \r\n        _prescription = HealthInfo[msg.sender][_paId].pre.prescription;\r\n        _rec = HealthInfo[msg.sender][_paId].records;\r\n\t}\r\n\r\n}",
  "sourcePath": "C:\\Users\\tarik\\Downloads\\Medic-Chain-master\\Medic-Chain-master\\Medic@Chain\\contracts\\MedicalChain.sol",
  "compiler": {
    "name": "solc",
    "version": "0.5.16+commit.9c3226ce.Emscripten.clang"
  },
  "schemaVersion": "3.4.16",
  "updatedAt": "2025-01-12T14:50:06.944Z",
  "networkType": "ethereum",
  "devdoc": {
    "methods": {}
  },
  "userdoc": {
    "methods": {}
  }
}