{
  "contractName": "MedicalChain",
  "abi": [
    {
      "inputs": [],
      "stateMutability": "nonpayable",
      "type": "constructor"
    },
    {
      "anonymous": false,
      "inputs": [
        {
          "indexed": false,
          "internalType": "address",
          "name": "admin",
          "type": "address"
        },
        {
          "indexed": false,
          "internalType": "address",
          "name": "doctor",
          "type": "address"
        }
      ],
      "name": "DrDetailsAdded",
      "type": "event"
    },
    {
      "anonymous": false,
      "inputs": [
        {
          "indexed": false,
          "internalType": "address",
          "name": "dr",
          "type": "address"
        },
        {
          "indexed": false,
          "internalType": "address",
          "name": "patient",
          "type": "address"
        }
      ],
      "name": "GrantAccessToDr",
      "type": "event"
    },
    {
      "anonymous": false,
      "inputs": [
        {
          "indexed": false,
          "internalType": "address",
          "name": "dr",
          "type": "address"
        },
        {
          "indexed": false,
          "internalType": "address",
          "name": "patient",
          "type": "address"
        }
      ],
      "name": "HealthRecordsAdded",
      "type": "event"
    },
    {
      "inputs": [
        {
          "internalType": "bool",
          "name": "_state",
          "type": "bool"
        },
        {
          "internalType": "address",
          "name": "_drId",
          "type": "address"
        },
        {
          "internalType": "string",
          "name": "_name",
          "type": "string"
        }
      ],
      "name": "setDoctorDetails",
      "outputs": [],
      "stateMutability": "nonpayable",
      "type": "function"
    },
    {
      "inputs": [
        {
          "internalType": "address",
          "name": "_Id",
          "type": "address"
        }
      ],
      "name": "getDoctorDetails",
      "outputs": [
        {
          "internalType": "bool",
          "name": "_state",
          "type": "bool"
        },
        {
          "internalType": "address",
          "name": "_drId",
          "type": "address"
        },
        {
          "internalType": "string",
          "name": "_name",
          "type": "string"
        }
      ],
      "stateMutability": "view",
      "type": "function"
    },
    {
      "inputs": [
        {
          "internalType": "string",
          "name": "_paName",
          "type": "string"
        },
        {
          "internalType": "address",
          "name": "_paId",
          "type": "address"
        },
        {
          "internalType": "string",
          "name": "_prescription",
          "type": "string"
        }
      ],
      "name": "setHealthRecordsDetails",
      "outputs": [],
      "stateMutability": "nonpayable",
      "type": "function"
    },
    {
      "inputs": [
        {
          "internalType": "bool",
          "name": "_state",
          "type": "bool"
        },
        {
          "internalType": "address",
          "name": "_paId",
          "type": "address"
        },
        {
          "internalType": "string",
          "name": "_paName",
          "type": "string"
        },
        {
          "internalType": "string[]",
          "name": "_paRecords",
          "type": "string[]"
        }
      ],
      "name": "setPatientDetails",
      "outputs": [],
      "stateMutability": "nonpayable",
      "type": "function"
    },
    {
      "inputs": [
        {
          "internalType": "address",
          "name": "_Id",
          "type": "address"
        }
      ],
      "name": "getPatientDetails",
      "outputs": [
        {
          "internalType": "bool",
          "name": "_state",
          "type": "bool"
        },
        {
          "internalType": "address",
          "name": "_paId",
          "type": "address"
        },
        {
          "internalType": "string",
          "name": "_paName",
          "type": "string"
        },
        {
          "internalType": "string[]",
          "name": "_paRecords",
          "type": "string[]"
        }
      ],
      "stateMutability": "view",
      "type": "function"
    },
    {
      "inputs": [
        {
          "internalType": "address",
          "name": "_dr",
          "type": "address"
        }
      ],
      "name": "getHealthRecords",
      "outputs": [
        {
          "internalType": "string",
          "name": "_drName",
          "type": "string"
        },
        {
          "internalType": "address",
          "name": "_drId",
          "type": "address"
        },
        {
          "internalType": "string",
          "name": "_paName",
          "type": "string"
        },
        {
          "internalType": "address",
          "name": "_paId",
          "type": "address"
        },
        {
          "internalType": "string",
          "name": "_prescription",
          "type": "string"
        },
        {
          "internalType": "string[]",
          "name": "_rec",
          "type": "string[]"
        }
      ],
      "stateMutability": "view",
      "type": "function"
    },
    {
      "inputs": [
        {
          "internalType": "address",
          "name": "doctor_id",
          "type": "address"
        },
        {
          "internalType": "uint256",
          "name": "access",
          "type": "uint256"
        }
      ],
      "name": "grantAccessToDoctor",
      "outputs": [],
      "stateMutability": "nonpayable",
      "type": "function"
    },
    {
      "inputs": [
        {
          "internalType": "address",
          "name": "_paId",
          "type": "address"
        }
      ],
      "name": "getHealthRecordsForDoctor",
      "outputs": [
        {
          "internalType": "string",
          "name": "_drName",
          "type": "string"
        },
        {
          "internalType": "address",
          "name": "_drId",
          "type": "address"
        },
        {
          "internalType": "string",
          "name": "_paName",
          "type": "string"
        },
        {
          "internalType": "address",
          "name": "_pId",
          "type": "address"
        },
        {
          "internalType": "string",
          "name": "_prescription",
          "type": "string"
        },
        {
          "internalType": "string[]",
          "name": "_rec",
          "type": "string[]"
        }
      ],
      "stateMutability": "view",
      "type": "function"
    }
  ],
  "bytecode": "0x608060405234801561001057600080fd5b5033600460006101000a81548173ffffffffffffffffffffffffffffffffffffffff021916908373ffffffffffffffffffffffffffffffffffffffff160217905550612fe8806100616000396000f3fe608060405234801561001057600080fd5b50600436106100885760003560e01c8063bab90dbd1161005b578063bab90dbd14610116578063c88f22a914610148578063efe2ccc114610164578063f83009ba1461019757610088565b8063506f17731461008d57806371f61bfa146100a95780637827c01a146100c557806380cfed0e146100fa575b600080fd5b6100a760048036038101906100a29190612744565b6101cc565b005b6100c360048036038101906100be91906127e7565b610320565b005b6100df60048036038101906100da919061271b565b6104d7565b6040516100f196959493929190612c32565b60405180910390f35b610114600480360381019061010f9190612780565b610b43565b005b610130600480360381019061012b919061271b565b610d09565b60405161013f93929190612ba1565b60405180910390f35b610162600480360381019061015d919061287a565b610f26565b005b61017e6004803603810190610179919061271b565b61190d565b60405161018e9493929190612bdf565b60405180910390f35b6101b160048036038101906101ac919061271b565b611ccf565b6040516101c396959493929190612c32565b60405180910390f35b60011515600160003373ffffffffffffffffffffffffffffffffffffffff1673ffffffffffffffffffffffffffffffffffffffff16815260200190815260200160002060000160009054906101000a900460ff16151514610262576040517f08c379a000000000000000000000000000000000000000000000000000000000815260040161025990612caf565b60405180910390fd5b80600360003373ffffffffffffffffffffffffffffffffffffffff1673ffffffffffffffffffffffffffffffffffffffff16815260200190815260200160002060008473ffffffffffffffffffffffffffffffffffffffff1673ffffffffffffffffffffffffffffffffffffffff168152602001908152602001600020819055507f19dd02d0615ff9058c55159271b51d3d8ead87b40cc392e6dbeca6483cff33338233604051610314929190612b78565b60405180910390a15050565b600115156000803373ffffffffffffffffffffffffffffffffffffffff1673ffffffffffffffffffffffffffffffffffffffff16815260200190815260200160002060000160009054906101000a900460ff161515146103b5576040517f08c379a00000000000000000000000000000000000000000000000000000000081526004016103ac90612d0f565b60405180910390fd5b604051806080016040528085151581526020018473ffffffffffffffffffffffffffffffffffffffff16815260200183815260200182815250600160008573ffffffffffffffffffffffffffffffffffffffff1673ffffffffffffffffffffffffffffffffffffffff16815260200190815260200160002060008201518160000160006101000a81548160ff02191690831515021790555060208201518160000160016101000a81548173ffffffffffffffffffffffffffffffffffffffff021916908373ffffffffffffffffffffffffffffffffffffffff16021790555060408201518160010190805190602001906104b09291906123f9565b5060608201518160020190805190602001906104cd92919061247f565b5090505050505050565b606060006060600060608060011515600160003373ffffffffffffffffffffffffffffffffffffffff1673ffffffffffffffffffffffffffffffffffffffff16815260200190815260200160002060000160009054906101000a900460ff16151514610578576040517f08c379a000000000000000000000000000000000000000000000000000000000815260040161056f90612caf565b60405180910390fd5b600260008873ffffffffffffffffffffffffffffffffffffffff1673ffffffffffffffffffffffffffffffffffffffff16815260200190815260200160002060003373ffffffffffffffffffffffffffffffffffffffff1673ffffffffffffffffffffffffffffffffffffffff168152602001908152602001600020600001600101805461060590612ecc565b80601f016020809104026020016040519081016040528092919081815260200182805461063190612ecc565b801561067e5780601f106106535761010080835404028352916020019161067e565b820191906000526020600020905b81548152906001019060200180831161066157829003601f168201915b50505050509550600260008873ffffffffffffffffffffffffffffffffffffffff1673ffffffffffffffffffffffffffffffffffffffff16815260200190815260200160002060003373ffffffffffffffffffffffffffffffffffffffff1673ffffffffffffffffffffffffffffffffffffffff16815260200190815260200160002060000160000160019054906101000a900473ffffffffffffffffffffffffffffffffffffffff169450600260008873ffffffffffffffffffffffffffffffffffffffff1673ffffffffffffffffffffffffffffffffffffffff16815260200190815260200160002060003373ffffffffffffffffffffffffffffffffffffffff1673ffffffffffffffffffffffffffffffffffffffff16815260200190815260200160002060020160010180546107b790612ecc565b80601f01602080910402602001604051908101604052809291908181526020018280546107e390612ecc565b80156108305780601f1061080557610100808354040283529160200191610830565b820191906000526020600020905b81548152906001019060200180831161081357829003601f168201915b50505050509350600260008873ffffffffffffffffffffffffffffffffffffffff1673ffffffffffffffffffffffffffffffffffffffff16815260200190815260200160002060003373ffffffffffffffffffffffffffffffffffffffff1673ffffffffffffffffffffffffffffffffffffffff16815260200190815260200160002060020160000160019054906101000a900473ffffffffffffffffffffffffffffffffffffffff169250600260008873ffffffffffffffffffffffffffffffffffffffff1673ffffffffffffffffffffffffffffffffffffffff16815260200190815260200160002060003373ffffffffffffffffffffffffffffffffffffffff1673ffffffffffffffffffffffffffffffffffffffff168152602001908152602001600020600501600001805461096990612ecc565b80601f016020809104026020016040519081016040528092919081815260200182805461099590612ecc565b80156109e25780601f106109b7576101008083540402835291602001916109e2565b820191906000526020600020905b8154815290600101906020018083116109c557829003601f168201915b50505050509150600260008873ffffffffffffffffffffffffffffffffffffffff1673ffffffffffffffffffffffffffffffffffffffff16815260200190815260200160002060003373ffffffffffffffffffffffffffffffffffffffff1673ffffffffffffffffffffffffffffffffffffffff168152602001908152602001600020600601805480602002602001604051908101604052809291908181526020016000905b82821015610b34578382906000526020600020018054610aa790612ecc565b80601f0160208091040260200160405190810160405280929190818152602001828054610ad390612ecc565b8015610b205780601f10610af557610100808354040283529160200191610b20565b820191906000526020600020905b815481529060010190602001808311610b0357829003601f168201915b505050505081526020019060010190610a88565b50505050905091939550919395565b600460009054906101000a900473ffffffffffffffffffffffffffffffffffffffff1673ffffffffffffffffffffffffffffffffffffffff163373ffffffffffffffffffffffffffffffffffffffff1614610bd3576040517f08c379a0000000000000000000000000000000000000000000000000000000008152600401610bca90612cef565b60405180910390fd5b604051806060016040528084151581526020018373ffffffffffffffffffffffffffffffffffffffff168152602001828152506000808473ffffffffffffffffffffffffffffffffffffffff1673ffffffffffffffffffffffffffffffffffffffff16815260200190815260200160002060008201518160000160006101000a81548160ff02191690831515021790555060208201518160000160016101000a81548173ffffffffffffffffffffffffffffffffffffffff021916908373ffffffffffffffffffffffffffffffffffffffff1602179055506040820151816001019080519060200190610cc79291906123f9565b509050507f83c041d3aeb1dcb1f28cb15e20bdfee5ed1ca3740e487f9cab72e13eeb8595053383604051610cfc929190612b78565b60405180910390a1505050565b6000806060600460009054906101000a900473ffffffffffffffffffffffffffffffffffffffff1673ffffffffffffffffffffffffffffffffffffffff163373ffffffffffffffffffffffffffffffffffffffff1614610d9e576040517f08c379a0000000000000000000000000000000000000000000000000000000008152600401610d9590612cef565b60405180910390fd5b6000808573ffffffffffffffffffffffffffffffffffffffff1673ffffffffffffffffffffffffffffffffffffffff16815260200190815260200160002060000160009054906101000a900460ff1692506000808573ffffffffffffffffffffffffffffffffffffffff1673ffffffffffffffffffffffffffffffffffffffff16815260200190815260200160002060000160019054906101000a900473ffffffffffffffffffffffffffffffffffffffff1691506000808573ffffffffffffffffffffffffffffffffffffffff1673ffffffffffffffffffffffffffffffffffffffff1681526020019081526020016000206001018054610e9f90612ecc565b80601f0160208091040260200160405190810160405280929190818152602001828054610ecb90612ecc565b8015610f185780601f10610eed57610100808354040283529160200191610f18565b820191906000526020600020905b815481529060010190602001808311610efb57829003601f168201915b505050505090509193909250565b600115156000803373ffffffffffffffffffffffffffffffffffffffff1673ffffffffffffffffffffffffffffffffffffffff16815260200190815260200160002060000160009054906101000a900460ff16151514610fbb576040517f08c379a0000000000000000000000000000000000000000000000000000000008152600401610fb290612d0f565b60405180910390fd5b6000803373ffffffffffffffffffffffffffffffffffffffff1673ffffffffffffffffffffffffffffffffffffffff168152602001908152602001600020600101600260003373ffffffffffffffffffffffffffffffffffffffff1673ffffffffffffffffffffffffffffffffffffffff16815260200190815260200160002060008473ffffffffffffffffffffffffffffffffffffffff1673ffffffffffffffffffffffffffffffffffffffff16815260200190815260200160002060000160010190805461108a90612ecc565b6110959291906124df565b506000803373ffffffffffffffffffffffffffffffffffffffff1673ffffffffffffffffffffffffffffffffffffffff16815260200190815260200160002060000160019054906101000a900473ffffffffffffffffffffffffffffffffffffffff16600260003373ffffffffffffffffffffffffffffffffffffffff1673ffffffffffffffffffffffffffffffffffffffff16815260200190815260200160002060008473ffffffffffffffffffffffffffffffffffffffff1673ffffffffffffffffffffffffffffffffffffffff16815260200190815260200160002060000160000160016101000a81548173ffffffffffffffffffffffffffffffffffffffff021916908373ffffffffffffffffffffffffffffffffffffffff1602179055506001600260003373ffffffffffffffffffffffffffffffffffffffff1673ffffffffffffffffffffffffffffffffffffffff16815260200190815260200160002060008473ffffffffffffffffffffffffffffffffffffffff1673ffffffffffffffffffffffffffffffffffffffff16815260200190815260200160002060020160000160006101000a81548160ff02191690831515021790555081600260003373ffffffffffffffffffffffffffffffffffffffff1673ffffffffffffffffffffffffffffffffffffffff16815260200190815260200160002060008473ffffffffffffffffffffffffffffffffffffffff1673ffffffffffffffffffffffffffffffffffffffff16815260200190815260200160002060020160000160016101000a81548173ffffffffffffffffffffffffffffffffffffffff021916908373ffffffffffffffffffffffffffffffffffffffff16021790555082600260003373ffffffffffffffffffffffffffffffffffffffff1673ffffffffffffffffffffffffffffffffffffffff16815260200190815260200160002060008473ffffffffffffffffffffffffffffffffffffffff1673ffffffffffffffffffffffffffffffffffffffff16815260200190815260200160002060020160010190805190602001906113aa9291906123f9565b5080600260003373ffffffffffffffffffffffffffffffffffffffff1673ffffffffffffffffffffffffffffffffffffffff16815260200190815260200160002060008473ffffffffffffffffffffffffffffffffffffffff1673ffffffffffffffffffffffffffffffffffffffff16815260200190815260200160002060050160000190805190602001906114419291906123f9565b50600260003373ffffffffffffffffffffffffffffffffffffffff1673ffffffffffffffffffffffffffffffffffffffff16815260200190815260200160002060008373ffffffffffffffffffffffffffffffffffffffff1673ffffffffffffffffffffffffffffffffffffffff168152602001908152602001600020600601819080600181540180825580915050600190039060005260206000200160009091909190915090805190602001906114fa9291906123f9565b50600160008373ffffffffffffffffffffffffffffffffffffffff1673ffffffffffffffffffffffffffffffffffffffff168152602001908152602001600020600201819080600181540180825580915050600190039060005260206000200160009091909190915090805190602001906115769291906123f9565b506118cf600260003373ffffffffffffffffffffffffffffffffffffffff1673ffffffffffffffffffffffffffffffffffffffff16815260200190815260200160002060008473ffffffffffffffffffffffffffffffffffffffff1673ffffffffffffffffffffffffffffffffffffffff16815260200190815260200160002060020160000160009054906101000a900460ff16600260003373ffffffffffffffffffffffffffffffffffffffff1673ffffffffffffffffffffffffffffffffffffffff16815260200190815260200160002060008573ffffffffffffffffffffffffffffffffffffffff1673ffffffffffffffffffffffffffffffffffffffff16815260200190815260200160002060020160000160019054906101000a900473ffffffffffffffffffffffffffffffffffffffff16600260003373ffffffffffffffffffffffffffffffffffffffff1673ffffffffffffffffffffffffffffffffffffffff16815260200190815260200160002060008673ffffffffffffffffffffffffffffffffffffffff1673ffffffffffffffffffffffffffffffffffffffff168152602001908152602001600020600201600101805461173a90612ecc565b80601f016020809104026020016040519081016040528092919081815260200182805461176690612ecc565b80156117b35780601f10611788576101008083540402835291602001916117b3565b820191906000526020600020905b81548152906001019060200180831161179657829003601f168201915b5050505050600160008773ffffffffffffffffffffffffffffffffffffffff1673ffffffffffffffffffffffffffffffffffffffff168152602001908152602001600020600201805480602002602001604051908101604052809291908181526020016000905b828210156118c657838290600052602060002001805461183990612ecc565b80601f016020809104026020016040519081016040528092919081815260200182805461186590612ecc565b80156118b25780601f10611887576101008083540402835291602001916118b2565b820191906000526020600020905b81548152906001019060200180831161189557829003601f168201915b50505050508152602001906001019061181a565b50505050610320565b7ffd09d3da0077a9ed9d4af05531b2f844c840c94c1e6535e3d2a09a6ae1aa9a523383604051611900929190612b78565b60405180910390a1505050565b60008060608060011515600160003373ffffffffffffffffffffffffffffffffffffffff1673ffffffffffffffffffffffffffffffffffffffff16815260200190815260200160002060000160009054906101000a900460ff16151514806119f157506001600360008773ffffffffffffffffffffffffffffffffffffffff1673ffffffffffffffffffffffffffffffffffffffff16815260200190815260200160002060003373ffffffffffffffffffffffffffffffffffffffff1673ffffffffffffffffffffffffffffffffffffffff16815260200190815260200160002054145b611a30576040517f08c379a0000000000000000000000000000000000000000000000000000000008152600401611a2790612ccf565b60405180910390fd5b600160008673ffffffffffffffffffffffffffffffffffffffff1673ffffffffffffffffffffffffffffffffffffffff16815260200190815260200160002060000160009054906101000a900460ff169350600160008673ffffffffffffffffffffffffffffffffffffffff1673ffffffffffffffffffffffffffffffffffffffff16815260200190815260200160002060000160019054906101000a900473ffffffffffffffffffffffffffffffffffffffff169250600160008673ffffffffffffffffffffffffffffffffffffffff1673ffffffffffffffffffffffffffffffffffffffff1681526020019081526020016000206001018054611b3490612ecc565b80601f0160208091040260200160405190810160405280929190818152602001828054611b6090612ecc565b8015611bad5780601f10611b8257610100808354040283529160200191611bad565b820191906000526020600020905b815481529060010190602001808311611b9057829003601f168201915b50505050509150600160008673ffffffffffffffffffffffffffffffffffffffff1673ffffffffffffffffffffffffffffffffffffffff168152602001908152602001600020600201805480602002602001604051908101604052809291908181526020016000905b82821015611cc2578382906000526020600020018054611c3590612ecc565b80601f0160208091040260200160405190810160405280929190818152602001828054611c6190612ecc565b8015611cae5780601f10611c8357610100808354040283529160200191611cae565b820191906000526020600020905b815481529060010190602001808311611c9157829003601f168201915b505050505081526020019060010190611c16565b5050505090509193509193565b6060600060606000606080600115156000803373ffffffffffffffffffffffffffffffffffffffff1673ffffffffffffffffffffffffffffffffffffffff16815260200190815260200160002060000160009054906101000a900460ff16151514611d6f576040517f08c379a0000000000000000000000000000000000000000000000000000000008152600401611d6690612d0f565b60405180910390fd5b6001600360008973ffffffffffffffffffffffffffffffffffffffff1673ffffffffffffffffffffffffffffffffffffffff16815260200190815260200160002060003373ffffffffffffffffffffffffffffffffffffffff1673ffffffffffffffffffffffffffffffffffffffff1681526020019081526020016000205414611e2e576040517f08c379a0000000000000000000000000000000000000000000000000000000008152600401611e2590612d2f565b60405180910390fd5b600260003373ffffffffffffffffffffffffffffffffffffffff1673ffffffffffffffffffffffffffffffffffffffff16815260200190815260200160002060008873ffffffffffffffffffffffffffffffffffffffff1673ffffffffffffffffffffffffffffffffffffffff1681526020019081526020016000206000016001018054611ebb90612ecc565b80601f0160208091040260200160405190810160405280929190818152602001828054611ee790612ecc565b8015611f345780601f10611f0957610100808354040283529160200191611f34565b820191906000526020600020905b815481529060010190602001808311611f1757829003601f168201915b50505050509550600260003373ffffffffffffffffffffffffffffffffffffffff1673ffffffffffffffffffffffffffffffffffffffff16815260200190815260200160002060008873ffffffffffffffffffffffffffffffffffffffff1673ffffffffffffffffffffffffffffffffffffffff16815260200190815260200160002060000160000160019054906101000a900473ffffffffffffffffffffffffffffffffffffffff169450600260003373ffffffffffffffffffffffffffffffffffffffff1673ffffffffffffffffffffffffffffffffffffffff16815260200190815260200160002060008873ffffffffffffffffffffffffffffffffffffffff1673ffffffffffffffffffffffffffffffffffffffff168152602001908152602001600020600201600101805461206d90612ecc565b80601f016020809104026020016040519081016040528092919081815260200182805461209990612ecc565b80156120e65780601f106120bb576101008083540402835291602001916120e6565b820191906000526020600020905b8154815290600101906020018083116120c957829003601f168201915b50505050509350600260003373ffffffffffffffffffffffffffffffffffffffff1673ffffffffffffffffffffffffffffffffffffffff16815260200190815260200160002060008873ffffffffffffffffffffffffffffffffffffffff1673ffffffffffffffffffffffffffffffffffffffff16815260200190815260200160002060020160000160019054906101000a900473ffffffffffffffffffffffffffffffffffffffff169250600260003373ffffffffffffffffffffffffffffffffffffffff1673ffffffffffffffffffffffffffffffffffffffff16815260200190815260200160002060008873ffffffffffffffffffffffffffffffffffffffff1673ffffffffffffffffffffffffffffffffffffffff168152602001908152602001600020600501600001805461221f90612ecc565b80601f016020809104026020016040519081016040528092919081815260200182805461224b90612ecc565b80156122985780601f1061226d57610100808354040283529160200191612298565b820191906000526020600020905b81548152906001019060200180831161227b57829003601f168201915b50505050509150600260003373ffffffffffffffffffffffffffffffffffffffff1673ffffffffffffffffffffffffffffffffffffffff16815260200190815260200160002060008873ffffffffffffffffffffffffffffffffffffffff1673ffffffffffffffffffffffffffffffffffffffff168152602001908152602001600020600601805480602002602001604051908101604052809291908181526020016000905b828210156123ea57838290600052602060002001805461235d90612ecc565b80601f016020809104026020016040519081016040528092919081815260200182805461238990612ecc565b80156123d65780601f106123ab576101008083540402835291602001916123d6565b820191906000526020600020905b8154815290600101906020018083116123b957829003601f168201915b50505050508152602001906001019061233e565b50505050905091939550919395565b82805461240590612ecc565b90600052602060002090601f016020900481019282612427576000855561246e565b82601f1061244057805160ff191683800117855561246e565b8280016001018555821561246e579182015b8281111561246d578251825591602001919060010190612452565b5b50905061247b919061256c565b5090565b8280548282559060005260206000209081019282156124ce579160200282015b828111156124cd5782518290805190602001906124bd9291906123f9565b509160200191906001019061249f565b5b5090506124db9190612589565b5090565b8280546124eb90612ecc565b90600052602060002090601f01602090048101928261250d576000855561255b565b82601f1061251e578054855561255b565b8280016001018555821561255b57600052602060002091601f016020900482015b8281111561255a57825482559160010191906001019061253f565b5b509050612568919061256c565b5090565b5b8082111561258557600081600090555060010161256d565b5090565b5b808211156125a957600081816125a091906125ad565b5060010161258a565b5090565b5080546125b990612ecc565b6000825580601f106125cb57506125ea565b601f0160209004906000526020600020908101906125e9919061256c565b5b50565b60006126006125fb84612d80565b612d4f565b9050808382526020820190508260005b85811015612640578135850161262688826126dc565b845260208401935060208301925050600181019050612610565b5050509392505050565b600061265d61265884612dac565b612d4f565b90508281526020810184848401111561267557600080fd5b612680848285612e8a565b509392505050565b60008135905061269781612f6d565b92915050565b600082601f8301126126ae57600080fd5b81356126be8482602086016125ed565b91505092915050565b6000813590506126d681612f84565b92915050565b600082601f8301126126ed57600080fd5b81356126fd84826020860161264a565b91505092915050565b60008135905061271581612f9b565b92915050565b60006020828403121561272d57600080fd5b600061273b84828501612688565b91505092915050565b6000806040838503121561275757600080fd5b600061276585828601612688565b925050602061277685828601612706565b9150509250929050565b60008060006060848603121561279557600080fd5b60006127a3868287016126c7565b93505060206127b486828701612688565b925050604084013567ffffffffffffffff8111156127d157600080fd5b6127dd868287016126dc565b9150509250925092565b600080600080608085870312156127fd57600080fd5b600061280b878288016126c7565b945050602061281c87828801612688565b935050604085013567ffffffffffffffff81111561283957600080fd5b612845878288016126dc565b925050606085013567ffffffffffffffff81111561286257600080fd5b61286e8782880161269d565b91505092959194509250565b60008060006060848603121561288f57600080fd5b600084013567ffffffffffffffff8111156128a957600080fd5b6128b5868287016126dc565b93505060206128c686828701612688565b925050604084013567ffffffffffffffff8111156128e357600080fd5b6128ef868287016126dc565b9150509250925092565b600061290583836129a0565b905092915050565b61291681612e42565b82525050565b600061292782612dec565b6129318185612e0f565b93508360208202850161294385612ddc565b8060005b8581101561297f578484038952815161296085826128f9565b945061296b83612e02565b925060208a01995050600181019050612947565b50829750879550505050505092915050565b61299a81612e54565b82525050565b60006129ab82612df7565b6129b58185612e20565b93506129c5818560208601612e99565b6129ce81612f5c565b840191505092915050565b60006129e482612df7565b6129ee8185612e31565b93506129fe818560208601612e99565b612a0781612f5c565b840191505092915050565b6000612a1f601883612e31565b91507f524547495354455245442050415449454e5453204f4e4c5900000000000000006000830152602082019050919050565b6000612a5f602783612e31565b91507f50415449454e5453204f52204143434553535f4752414e5445445f444f43544f60008301527f5253204f4e4c59000000000000000000000000000000000000000000000000006020830152604082019050919050565b6000612ac5601583612e31565b91507f4f4e4c592041444d494e20495320414c4c4f57454400000000000000000000006000830152602082019050919050565b6000612b05601783612e31565b91507f5245474953544552454420444f43544f5253204f4e4c590000000000000000006000830152602082019050919050565b6000612b45601583612e31565b91507f445220414343455353204e4f54204752414e54454400000000000000000000006000830152602082019050919050565b6000604082019050612b8d600083018561290d565b612b9a602083018461290d565b9392505050565b6000606082019050612bb66000830186612991565b612bc3602083018561290d565b8181036040830152612bd581846129d9565b9050949350505050565b6000608082019050612bf46000830187612991565b612c01602083018661290d565b8181036040830152612c1381856129d9565b90508181036060830152612c27818461291c565b905095945050505050565b600060c0820190508181036000830152612c4c81896129d9565b9050612c5b602083018861290d565b8181036040830152612c6d81876129d9565b9050612c7c606083018661290d565b8181036080830152612c8e81856129d9565b905081810360a0830152612ca2818461291c565b9050979650505050505050565b60006020820190508181036000830152612cc881612a12565b9050919050565b60006020820190508181036000830152612ce881612a52565b9050919050565b60006020820190508181036000830152612d0881612ab8565b9050919050565b60006020820190508181036000830152612d2881612af8565b9050919050565b60006020820190508181036000830152612d4881612b38565b9050919050565b6000604051905081810181811067ffffffffffffffff82111715612d7657612d75612f2d565b5b8060405250919050565b600067ffffffffffffffff821115612d9b57612d9a612f2d565b5b602082029050602081019050919050565b600067ffffffffffffffff821115612dc757612dc6612f2d565b5b601f19601f8301169050602081019050919050565b6000819050602082019050919050565b600081519050919050565b600081519050919050565b6000602082019050919050565b600082825260208201905092915050565b600082825260208201905092915050565b600082825260208201905092915050565b6000612e4d82612e60565b9050919050565b60008115159050919050565b600073ffffffffffffffffffffffffffffffffffffffff82169050919050565b6000819050919050565b82818337600083830152505050565b60005b83811015612eb7578082015181840152602081019050612e9c565b83811115612ec6576000848401525b50505050565b60006002820490506001821680612ee457607f821691505b60208210811415612ef857612ef7612efe565b5b50919050565b7f4e487b7100000000000000000000000000000000000000000000000000000000600052602260045260246000fd5b7f4e487b7100000000000000000000000000000000000000000000000000000000600052604160045260246000fd5b6000601f19601f8301169050919050565b612f7681612e42565b8114612f8157600080fd5b50565b612f8d81612e54565b8114612f9857600080fd5b50565b612fa481612e80565b8114612faf57600080fd5b5056fea26469706673582212207b91de93740d5a4eeb4a26e10c4b6e0b12af27219f222861d9163aea1d6ae07a64736f6c63430008000033",
  "immutableReferences": {},
  "source": "pragma solidity ^0.8.0;\r\npragma experimental ABIEncoderV2;\r\n\r\ncontract MedicalChain{\r\n\r\n    mapping(address=>Doctor) DoctorInfo;\r\n    mapping(address=>Patient) PatientInfo;\r\n    mapping(address=> mapping(address => HealthRecords)) HealthInfo;\r\n    mapping (address => mapping (address => uint)) private patientToDoctor;\r\n\r\n\r\n\r\n    event DrDetailsAdded(address admin, address doctor);\r\n    event HealthRecordsAdded(address dr, address patient);\r\n    event GrantAccessToDr(address dr, address patient);\r\n\r\n    modifier OnlyOwner(){\r\n        require(msg.sender == owner,\"ONLY ADMIN IS ALLOWED\");\r\n        _;\r\n    }\r\n    \r\n    modifier Only_Doctors{\r\n        require(DoctorInfo[msg.sender].state == true,\"REGISTERED DOCTORS ONLY\");\r\n        _;\r\n    }\r\n    \r\n    modifier Only_Patients{\r\n        require(PatientInfo[msg.sender].state == true,\"REGISTERED PATIENTS ONLY\");\r\n        _;\r\n    }\r\n    \r\n    address owner;\r\n    \r\n    constructor() public{\r\n        owner = msg.sender;\r\n    }\r\n    \r\n    struct Doctor{\r\n        bool state; // To check whether the doctor is registered or not\r\n        address dr_Id; // Address of doctor\r\n        string d_Name; // Name of doctor\r\n    }\r\n    \r\n    struct Patient{\r\n        bool state; // To check whether patient is genuine\r\n        address pa_Id; // Address of registered patient\r\n        string pa_Name; // Name of Patient Name\r\n        string[] pa_Records; // Used to store the prescription records of corresponding patients\r\n    }\r\n    \r\n    struct PrescriptionDetails{\r\n        string prescription; // prescription details of patient given by doctor\r\n    }\r\n    \r\n    struct HealthRecords{\r\n        Doctor d;\r\n        Patient p;\r\n        PrescriptionDetails pre;\r\n        string[] records; // Used to store prescription records of patient w.r.t doctor\r\n    }\r\n    \r\n\r\n    \r\n    // Function to add Doctor details, done by admin only\r\n    function setDoctorDetails(bool _state,address _drId,string memory _name) public OnlyOwner {\r\n        DoctorInfo[_drId] = Doctor(_state,_drId,_name);\r\n        emit DrDetailsAdded(msg.sender, _drId);\r\n    }\r\n    \r\n    \r\n    \r\n    // Function to get Doctor details for admin\r\n    function getDoctorDetails(address _Id) public OnlyOwner view returns(bool _state,address _drId,string memory _name){\r\n        _state = DoctorInfo[_Id].state;\r\n        _drId = DoctorInfo[_Id].dr_Id;\r\n        _name = DoctorInfo[_Id].d_Name;\r\n    }\r\n    \r\n    \r\n    \r\n    // Function to add HealthRecords of patients, done by registered doctors only\r\n    function setHealthRecordsDetails(string memory _paName, address _paId, string memory _prescription) public Only_Doctors{\r\n        \r\n        HealthInfo[msg.sender][_paId].d.d_Name = DoctorInfo[msg.sender].d_Name; \r\n        HealthInfo[msg.sender][_paId].d.dr_Id = DoctorInfo[msg.sender].dr_Id;\r\n        HealthInfo[msg.sender][_paId].p.state = true;\r\n        HealthInfo[msg.sender][_paId].p.pa_Id = _paId;\r\n        HealthInfo[msg.sender][_paId].p.pa_Name = _paName;\r\n        HealthInfo[msg.sender][_paId].pre.prescription = _prescription;\r\n        HealthInfo[msg.sender][_paId].records.push(_prescription);\r\n        PatientInfo[_paId].pa_Records.push(_prescription);\r\n        setPatientDetails(HealthInfo[msg.sender][_paId].p.state,HealthInfo[msg.sender][_paId].p.pa_Id,HealthInfo[msg.sender][_paId].p.pa_Name,PatientInfo[_paId].pa_Records);\r\n        emit HealthRecordsAdded(msg.sender, _paId);\r\n    }\r\n    \r\n    \r\n    \r\n    // Function to add Patient details, done by registered doctors only\r\n    function setPatientDetails(bool _state,address _paId,string memory _paName,string[] memory _paRecords) public Only_Doctors{\r\n        PatientInfo[_paId] = Patient(_state,_paId,_paName,_paRecords);\r\n    }\r\n    \r\n    \r\n    \r\n    // Function to get Patient details\r\n    function getPatientDetails(address _Id) public view returns(bool _state,address _paId,string memory _paName,string[] memory _paRecords){\r\n       require(PatientInfo[msg.sender].state == true || patientToDoctor[_Id][msg.sender] == 1,\"PATIENTS OR ACCESS_GRANTED_DOCTORS ONLY\");\r\n        _state = PatientInfo[_Id].state;\r\n        _paId = PatientInfo[_Id].pa_Id;\r\n        _paName = PatientInfo[_Id].pa_Name;\r\n        _paRecords = PatientInfo[_Id].pa_Records;\r\n        \r\n    }\r\n    \r\n    \r\n    \r\n    // Function to get HealthRecords only for registered patients\r\n    function getHealthRecords(address _dr) Only_Patients public view returns(string memory _drName, address _drId, string memory _paName, address _paId,string memory _prescription,string[] memory _rec) {\r\n        _drName = HealthInfo[_dr][msg.sender].d.d_Name;\r\n        _drId = HealthInfo[_dr][msg.sender].d.dr_Id;\r\n        _paName = HealthInfo[_dr][msg.sender].p.pa_Name;\r\n        _paId = HealthInfo[_dr][msg.sender].p.pa_Id;\r\n        _prescription = HealthInfo[_dr][msg.sender].pre.prescription;\r\n        _rec = HealthInfo[_dr][msg.sender].records;\r\n    }\r\n\r\n\r\n\r\n    // Function to grant access to doctor ,so that the doctors with access can view the corresponding patients HealthRecords\r\n    function grantAccessToDoctor(address doctor_id,uint access) public Only_Patients{\r\n    \tpatientToDoctor[msg.sender][doctor_id] = access;\r\n        emit GrantAccessToDr(doctor_id,msg.sender);\r\n      }\r\n  \t\r\n  \t\r\n  \t\r\n  \t// Function to get HealthRecords only for registered Doctors\r\n  \tfunction getHealthRecordsForDoctor(address _paId) public Only_Doctors view returns(string memory _drName, address _drId, string memory _paName, address _pId,string memory _prescription,string[] memory _rec){\r\n\t\trequire(patientToDoctor[_paId][msg.sender] == 1,\"DR ACCESS NOT GRANTED\");\r\n\t\t_drName = HealthInfo[msg.sender][_paId].d.d_Name;\r\n        _drId = HealthInfo[msg.sender][_paId].d.dr_Id;\r\n        _paName = HealthInfo[msg.sender][_paId].p.pa_Name;\r\n        _pId = HealthInfo[msg.sender][_paId].p.pa_Id; \r\n        _prescription = HealthInfo[msg.sender][_paId].pre.prescription;\r\n        _rec = HealthInfo[msg.sender][_paId].records;\r\n\t}\r\n\r\n}",
  "sourcePath": "C:\\Users\\tarik\\Downloads\\Medic-Chain-master\\Medic-Chain-master\\Medic@Chain\\contracts\\MedicalChain.sol",
  "compiler": {
    "name": "solc",
    "version": "0.8.0+commit.c7dfd78e.Emscripten.clang"
  },
  "schemaVersion": "3.4.16",
  "updatedAt": "2025-02-03T17:08:56.893Z",
  "devdoc": {
    "kind": "dev",
    "methods": {},
    "version": 1
  },
  "userdoc": {
    "kind": "user",
    "methods": {},
    "version": 1
  }
}